RA660697005P0044599         0      99JW ACCOUNTING & TAX SERVICES                             BO BOTIJAS II CARR 156PO BOX 411            Patillas              PR00720                                                 JW ACCOUNTING & TAX SERVICES                             BO BOTIJAS II CARR 156PO BOX 411            Orocovis              PR00720                                                 JOSE  ORTIZ                7873909740             jwtaxes@yahoo.com                                     A            
RE2024 664545454         0             FACTORY108 LLC                                           BO BARROS SECTOR LIMONRR 1 BOX 12457        Orocovis              PR00720                                                 RP0BRUNYMARIE VELAZQUEZ       7873908578                    prueb2a@prueba2.com                                                                                                                                                                                                                       
RW587677867VILMA          G              COLON APONTE            RR 1 BOX 23456        RR 1 BOX 23456        Adjuntas              PR00787                                                 00000000000000000000000000246400000000152768000024640000000003572800000000000           000000000000000000000000000000000000000000000000000000000000000000           00000000000000000000000000000000000000000000           00000000000000000000000000000000000000000000000000000000000000000000000000000 0 00                       
RO         0000000000000000000000000000000000000000000000000000000000000000000000000000000000000000           00000000000000000000000000000000000000000000                                                                                                                        00002464000000000000000000000000000000000000000024640000000002464000000000000           0000000000000000000000                                                                                                                                
RS0000000587677867VILMA          G              COLON APONTE            RR 1 BOX 23456        RR 1 BOX 23456        Adjuntas              PR00787                                                   0000000000000000000000000000000000000000000000     00000000000000000000      0000000000000000000000000000000000000000000000000000000000000000                                                                                                                                                                               
RW123456789JAIME          D              FUSTER ORTIZ            1544 PONCE DE LEON AVE1544 PONCE DE LEON AVESan Juan              PR00936                                                 00000000000000000000000000193600000000120032000019360000000002807200000000000           000000000000000000000000000000000000000000000000000000000000000000           00000000000000000000000000000000000000000000           00000000000000000000000000000000000000000000000000000000000000000000000000000 0 00                       
RO         0000000000000000000000000000000000000000000000000000000000000000000000000000000000000000           00000000000000000000000000000000000000000000                                                                                                                        00000000000000000000000000000000000000000000000000000000000003872000000000000           0000000000000000000000                                                                                                                                
RS0000000123456789JAIME          D              FUSTER ORTIZ            1544 PONCE DE LEON AVE1544 PONCE DE LEON AVESan Juan              PR00936                                                   0000000000000000000000000000000000000000000000     00000000000000000000      0000000000000000000000000000000000000000000000000000000000000000                                                                                                                                                                               
RW655233467PETER          M              OTERO VAZQUEZ           PO BOX 34             PO BOX 34             Arecibo               PR00988                                                 00000000000000000000000000193600000000120032000019360000000002807200000000000           000000000000000000000000000000000000000000000000000000000000000000           00000000000000000000000000000000000000000000           00000000000000000000000000000000000000000000000000000000000000000000000000000 0 00                       
RO         0000000000000000000000000000000000000000000000000000000000000000000000000000000000000000           00000000000000000000000000000000000000000000                                                                                                                        00000000000000000000000000000000000000000000000000000000000003872000000000000           0000000000000000000000                                                                                                                                
RS0000000655233467PETER          M              OTERO VAZQUEZ           PO BOX 34             PO BOX 34             Arecibo               PR00988                                                   0000000000000000000000000000000000000000000000     00000000000000000000      0000000000000000000000000000000000000000000000000000000000000000                                                                                                                                                                               
RW558568778BRUNYMARIE                    VELAZQUEZ TORRES        RR 1 BOX 12455        RR 1 BOX 12455        Naranjito             PR00769                                                 00000000000000000000000000710814000000440700000071081400000010306900000000000           000000000000000000000000000000000000000000000000000000000000000000           00000000000000000000000000000000000000000000           00000000000000000000000000000000000000000000000000000000000000000000000000000 0 00                       
RO         0000000000000000000000000000000000000000000000000000000000000000000000000000000000000000           00000000000000000000000000000000000000000000                                                                                                                        00007108140000000000000000000000000000000000000071081400000113730200000000000           0000000000000000000000                                                                                                                                
RS0000000558568778BRUNYMARIE                    VELAZQUEZ TORRES        RR 1 BOX 12455        RR 1 BOX 12455        Naranjito             PR00769                                                   0000000000000000000000000000000000000000000000     00000000000000000000      0000000000000000000000000000000000000000000000000000000000000000                                                                                                                                                                               
RW677989089ANGEL          G              PEREZ TORRES            RR 1 BOX 45677        RR 1 BOX 45677        Arroyo                PR00766                                                 00000000000000000000000000267300000000165726000026730000000003875800000000000           000000000000000000000000000000000000000000000000000000000000000000           00000000000000000000000000000000000000000000           00000000000000000000000000000000000000000000000000000000000000000000000000000 0 00                       
RO         0000000000000000000000000000000000000000000000000000000000000000000000000000000000000000           00000000000000000000000000000000000000000000                                                                                                                        00000000000000000000000000000000000000000000000000000000000005346000000000000           0000000000000000000000                                                                                                                                
RS0000000677989089ANGEL          G              PEREZ TORRES            RR 1 BOX 45677        RR 1 BOX 45677        Arroyo                PR00766                                                   0000000000000000000000000000000000000000000000     00000000000000000000      0000000000000000000000000000000000000000000000000000000000000000                                                                                                                                                                               
RT0000005000000000000000000000000000000000000016117140000000000999258000000016117140000000000233699000000000000000               000000000000000000000000000000000000000000000000000000000000000000000000000000000000000000               000000000000000000000000000000000000000000000000000000000000000000000000000000000000000000000000000000000000000000000000000000000000000000000000000000000000000000000000000000000000                                                                                                  
RU0000005000000000000000000000000000000000000000000000000000000000000000000000000000000000000000000000000000000000000000000000000               000000000000000000000000000000000000000000000000000000000000                                                                                                                                                      000000009572140000000000000000000000000000000000000000000000000000009572140000000001292842000000000000000000000000000000000000000000000                       
RV                                                                                                                                                                                                                                                                                                                                                                                                                                                                                                                              
RF     000000005                                                                                                                                                                                                                                                                                                                                                                                                                                                                                                                
